:020000040000FA
:100000000A128A11F32F00308A000408840A82073A
:10001000003443344F344D3441344E3444344F343F
:10002000203444344534533443344F344E344F3405
:100030004334493444344F3400344F345534543409
:1000400020344F3446342034523441344E34473413
:1000500045340034473445345434523445344734FD
:100060000034533445345434523445344734003426
:100070005334453454344F345534543400344734B5
:100080004534543449344E340034533453344434B6
:0A0090003E3400344F344B3400348A
:100A360064008001840A04060319003404061C2D90
:100A460038300A128A1161260A128A11770883122F
:100A56000313C5007608C4004508C3004408C20055
:100A66000800F100F0013A30710203183B2D3C2DCD
:100A7600442D30307102031C412D422D442DF001CE
:100A8600F00A700C0800F3007308F1007108F20018
:100A9600542D0130F1007108F2070130F1007108A0
:100AA600F0077008840083130008F10072088400C0
:100AB600710880000008031D612D622D4C2D080071
:100AC600F401F501701C682D692D6F2D7208F4076D
:100AD6000318F50A7308F50701300310F20DF30D3C
:100AE600FF3E031D702D01300310F10CF00CFF3E8C
:100AF600031D772D70087104031D822D832D652D2E
:100B06007508F1007408F0000800F600922D013017
:100B1600F2007208F6070130F2007208F00770085A
:100B260084000A128A1103200A128A11F20076083A
:100B3600840083130008F30072087302F40074083B
:100B4600F5007508031DA82DA92DB02D7608840083
:100B56000008031DAF2DB02D8A2D7508F000F10198
:100B6600F01BF1030800F5000D3075060319BC2DC6
:100B7600BD2DCE2D7508F4008312031322082E3ED8
:100B860084007408831380000130A2070318A30AA7
:100B96000030A307EA2D3830F4007408F0002E3038
:100BA6000A128A1146250A128A112E30F400740898
:100BB600F00024300A128A1146250A128A1183127D
:100BC6000313A201A3010130A0000030A100080018
:100BD60083120313CC01CD01002E4C08383E84004D
:100BE6000008F9004C08423E840079088000013074
:100BF600CC070318CD0A0030CD074C08383E8400D8
:100C06003A3083130006031D092E0A2EF02D3030CC
:100C1600F9007908F00042300A128A1188250A1272
:100C26008A1170087104031D192E1A2E1F2E013009
:100C3600F7000030F800602E3730F9007908F00030
:100C460042300A128A1188250A128A117008710424
:100C5600031D2E2E2F2E342E0230F7000030F80002
:100C6600602E2930F9007908F00042300A128A1104
:100C760088250A128A1170087104031D432E442E1A
:100C8600492E0330F7000030F800602E2230F900BC
:100C96007908F00042300A128A1188250A128A1150
:100CA60070087104031D582E592E5E2E0430F7006D
:100CB6000030F800602EF701F8010800FD00672EED
:100CC6000130F8007808FD077D0884002030831382
:100CD600000603196F2E702E632E7D0884000930DE
:100CE60000060319772E782E632EFB01FC01FA010C
:100CF6007D0884002D300006031D822E832E8C2E47
:100D06000130F8007808FA070130F8007808FD0786
:100D1600BA2E7D0884002B300006031D932E942ED8
:100D2600BA2E0130F8007808FD07BA2E7D08840037
:100D36007C08F1007B08F0000A30F2000030F30076
:100D46000A128A1163250A128A1183130008700792
:100D5600F8000030031801307107F9007808D03E1A
:100D6600FB0079080318013EFF3EFC00942E7D0827
:100D7600840000080A128A1134250A128A110318FF
:100D8600C52EC62E992E7A080319CA2ECB2ED72E1B
:100D96007B09F8007C09F900F80A0319F90A7808B2
:100DA600F6007908F700DB2E7C08F7007B08F600D2
:100DB6000800831603178801890183160313860129
:100DC6000713831603178711831603131815193093
:100DD6009900981683120313181698173D30990038
:100DE6008C1EF62EF72EFD2E1A080A128A11B6252B
:100DF6000A128A118312031320032104031D042FF0
:100E0600052FF32ED32F0A128A1123250A128A11CF
:100E1600831203134308803AFF0080307F02031DCC
:100E2600162F073042020318192F1A2F332F0A12D2
:100E36008A1123250A128A11831203134308803A62
:100E4600FF0080307F02031D2A2F01304202031C5F
:100E56002D2F2E2F332F4230831203139900EB2FA1
:100E66001530831203139900EB2F0A128A112325DA
:100E76000A128A11831203134308803AFF00803056
:100E86007F02031D482F0430420203184B2F4C2FBC
:100E9600652F0A128A1123250A128A118312031357
:100EA6004308803AFF0080307F02031D5C2F01302B
:100EB6004202031C5F2F602F652F423083120313FB
:100EC6009900EB2F1530831203139900EB2F0A12AA
:100ED6008A1123250A128A11831203134308803AC2
:100EE600FF0080307F02031D7A2F0A30420203186A
:100EF6007D2F7E2F972F0A128A1123250A128A1117
:100F0600831203134308803AFF0080307F02031DDB
:100F16008E2F01304202031C912F922F972F4230C1
:100F2600831203139900EB2F1530831203139900D4
:100F3600EB2F0A128A1123250A128A118312031330
:100F46004308803AFF0080307F02031DAC2F0A3031
:100F560042020318AF2FB02FC92F0A128A11232578
:100F66000A128A11831203134308803AFF00803065
:100F76007F02031DC02F01304202031CC32FC42F62
:100F8600C92F4230831203139900EB2F15308312B9
:100F960003139900EB2F0130831203139900EB2FF3
:100FA6000A128A11EB250A128A117808003A0319E7
:100FB600DD2FCE2F7708013A0319062F033A0319BE
:100FC600382F013A03196A2F073A03199C2FCE2F9F
:100FD600A001A1013D309900F32E0A128A110028C2
:100FE60083132030840042300A128A111B250A120C
:0A0FF6008A1183010A128A11DC2E11
:04400E00D4ECFFFFF0
:00000001FF
