:100000000A128A11F32F00308A000408840A82073A
:10001000003443344D34443420344E344F3454345B
:10002000203446344F3455344E34443400344F3445
:100030005534543420344F3446342034523441340F
:100040004E34473445340034473445345434523404
:1000500045344734003453344534543452344534F1
:10006000473400345334453454344F3455345434C5
:10007000003447344534543449344E340034533416
:0E008000533444343E3400344F344B34003497
:10094C0064008001840A0406031900340406A72CF1
:10095C003830F4007408F00024300A128A11DC24B8
:10096C000A128A11080038300A128A113E260A121D
:10097C008A11770883120313C5007608C400450852
:10098C00C3004408C2000800F100F0013A307102C3
:10099C000318D12CD22CDA2C30307102031CD72C3A
:1009AC00D82CDA2CF001F00A700C0800F300730854
:1009BC00F1007108F200EA2C0130F1007108F20725
:1009CC000130F1007108F0077008840083130008EF
:1009DC00F10072088400710880000008031DF72CD8
:1009EC00F82CE22C0800F3007308F2007208F400F3
:1009FC00032D0130F2007208F407740884000A1207
:100A0C008A1103200A128A11003A031D0E2D0F2D94
:100A1C00FF2C73087402F000F101F01BF1030800C5
:100A2C00F401F501701C1B2D1C2D222D7208F407EE
:100A3C000318F50A7308F50701300310F20DF30DD6
:100A4C00FF3E031D232D01300310F10CF00CFF3E73
:100A5C00031D2A2D70087104031D352D362D182DFC
:100A6C007508F1007408F0000800F700F501F601B4
:100A7C00502D7508770784000A128A1103200A1278
:100A8C008A118312031399000130F5070318F60A33
:100A9C000030F60777080A128A11F9240A128A1113
:100AAC0071087602031D5C2D70087502031C5F2D06
:100ABC00602D3F2D0A308312031399000800F600B5
:100ACC006F2D0130F2007208F6070130F200720847
:100ADC00F007700884000A128A1103200A128A1186
:100AEC00F2007608840083130008F3007208730286
:100AFC00F4007408F5007508031D852D862D8D2DC9
:100B0C00760884000008031D8C2D8D2D672D75082B
:100B1C00F000F101F01BF1030800F5000D30750633
:100B2C000319992D9A2DAB2D7508F400831203131C
:100B3C0022082E3E84007408831380000130A20723
:100B4C000318A30A0030A307C72D3830F40074082B
:100B5C00F0002E300A128A11DC240A128A112E306F
:100B6C00F4007408F00024300A128A11DC240A12F2
:100B7C008A1183120313A201A3010130A0000030DB
:100B8C00A100080083120313CC01CD01DD2D4C080C
:100B9C00383E84000008F9004C08423E8400790875
:100BAC0080000130CC070318CD0A0030CD074C086B
:100BBC00383E84003A3083130006031DE62DE72DE2
:100BCC00CD2D2A30F9007908F00042300A128A1132
:100BDC0065250A128A1170087104031DF62DF72D74
:100BEC00FC2D0130F7000030F8003D2E3130F900BB
:040BFC007908F00084
:100C000042300A128A1165250A128A11700871048D
:100C1000031D0B2E0C2E112E0230F7000030F800B1
:100C20003D2E2330F9007908F00042300A128A1173
:100C300065250A128A1170087104031D202E212EC9
:100C4000262E0330F7000030F8003D2E1C30F9004E
:100C50007908F00042300A128A1165250A128A11B9
:100C600070087104031D352E362E3B2E0430F7001C
:100C70000030F8003D2EF701F8010800FD00442E79
:100C80000130F8007808FD077D08840020308313C8
:100C9000000603194C2E4D2E402E7D08840009308D
:100CA00000060319542E552E402EFB01FC01FA01BB
:100CB0007D0884002D300006031D5F2E602E692EF6
:100CC0000130F8007808FA070130F8007808FD07CD
:100CD000972E7D0884002B300006031D702E712E88
:100CE000972E0130F8007808FD07972E7D088400C4
:100CF0007C08F1007B08F0000A30F2000030F300BD
:100D00000A128A1116250A128A1183130008700725
:100D1000F8000030031801307107F9007808D03E60
:100D2000FB0079080318013EFF3EFC00712E7D0890
:100D3000840000080A128A11CA240A128A110318B0
:100D4000A22EA32E762E7A080319A72EA82EB42E33
:100D50007B09F8007C09F900F80A0319F90A7808F8
:100D6000F6007908F700B82E7C08F7007B08F6003B
:100D7000080083160317880189018316031386016F
:100D800007138316031787118316031318151930D9
:100D900099009816831203131816981737300A1201
:100DA0008A113B250A128A11831203138C1ED92E35
:100DB000DA2EE02E1A080A128A1193250A128A11D5
:100DC0008312031320032104031DE72EE82ED42EE3
:100DD000C82F0A128A11B9240A128A118312031326
:100DE0004308803AFF0080307F02031DF92E073050
:100DF00042020318FC2EFD2E182F0A128A11B92464
:100E00000A128A11831203134308803AFF008030CC
:100E10007F02031D0D2F01304202031C102F112FE2
:100E2000182F3C300A128A113B250A128A11E02F32
:100E30000F300A128A113B250A128A11E02F0A127A
:100E40008A11B9240A128A11831203134308803AC3
:100E5000FF0080307F02031D2F2F04304202031851
:100E6000322F332F4E2F0A128A11B9240A128A11F7
:100E7000831203134308803AFF0080307F02031D72
:100E8000432F01304202031C462F472F4E2F3C3088
:100E90000A128A113B250A128A11E02F0F300A121A
:100EA0008A113B250A128A11E02F0A128A11B924ED
:100EB0000A128A11831203134308803AFF0080301C
:100EC0007F02031D652F0A3042020318682F692F25
:100ED000842F0A128A11B9240A128A118312031369
:100EE0004308803AFF0080307F02031D792F0130D4
:100EF0004202031C7C2F7D2F842F3C300A128A1162
:100F00003B250A128A11E02F0F300A128A113B2565
:100F10000A128A11E02F0A128A11B9240A128A11C0
:100F2000831203134308803AFF0080307F02031DC1
:100F30009B2F0A30420203189E2F9F2FBA2F0A12AE
:100F40008A11B9240A128A11831203134308803AC2
:100F5000FF0080307F02031DAF2F01304202031CCF
:100F6000B22FB32FBA2F3C300A128A113B250A1236
:100F70008A11E02F0F300A128A113B250A128A11BA
:100F8000E02F01300A128A113B250A128A11E02F44
:100F90000A128A11C8250A128A117808003A031920
:100FA000D22FC12F7708013A0319E92E033A03190A
:100FB0001F2F013A0319552F073A03198B2FC12F01
:100FC0000A128A11AE240A128A1183120313A00195
:100FD000A10137300A128A113B250A128A11D42E38
:100FE0000A128A11002883132030840042300A122A
:100FF0008A11A6240A128A1183010A128A11B92EB3
:04400E00D4ECFFFFF0
:00000001FF
